{
  "_format": "hh-sol-artifact-1",
  "contractName": "Multicall",
  "sourceName": "contracts/multicall.sol",
  "abi": [
    {
      "inputs": [
        {
          "components": [
            {
              "internalType": "address",
              "name": "target",
              "type": "address"
            },
            {
              "internalType": "bytes",
              "name": "callData",
              "type": "bytes"
            }
          ],
          "internalType": "struct Multicall.Call[]",
          "name": "calls",
          "type": "tuple[]"
        }
      ],
      "name": "aggregate",
      "outputs": [
        {
          "components": [
            {
              "internalType": "bool",
              "name": "success",
              "type": "bool"
            },
            {
              "internalType": "bytes",
              "name": "returnData",
              "type": "bytes"
            }
          ],
          "internalType": "struct Multicall.Result[]",
          "name": "returnData",
          "type": "tuple[]"
        }
      ],
      "stateMutability": "nonpayable",
      "type": "function"
    }
  ],
  "bytecode": "0x6080604052348015600f57600080fd5b506106a58061001f6000396000f3fe608060405234801561001057600080fd5b506004361061002b5760003560e01c8063252dba4214610030575b600080fd5b61004a6004803603810190610045919061027b565b610060565b6040516100579190610472565b60405180910390f35b606060008383905090508067ffffffffffffffff81111561008457610083610494565b5b6040519080825280602002602001820160405280156100bd57816020015b6100aa6101f0565b8152602001906001900390816100a25790505b50915060005b818110156101e8576000808686848181106100e1576100e06104c3565b5b90506020028101906100f39190610501565b60000160208101906101059190610587565b73ffffffffffffffffffffffffffffffffffffffff1687878581811061012e5761012d6104c3565b5b90506020028101906101409190610501565b806020019061014f91906105b4565b60405161015d929190610656565b6000604051808303816000865af19150503d806000811461019a576040519150601f19603f3d011682016040523d82523d6000602084013e61019f565b606091505b509150915060405180604001604052808315158152602001828152508584815181106101ce576101cd6104c3565b5b6020026020010181905250505080806001019150506100c3565b505092915050565b6040518060400160405280600015158152602001606081525090565b600080fd5b600080fd5b600080fd5b600080fd5b600080fd5b60008083601f84011261023b5761023a610216565b5b8235905067ffffffffffffffff8111156102585761025761021b565b5b60208301915083602082028301111561027457610273610220565b5b9250929050565b600080602083850312156102925761029161020c565b5b600083013567ffffffffffffffff8111156102b0576102af610211565b5b6102bc85828601610225565b92509250509250929050565b600081519050919050565b600082825260208201905092915050565b6000819050602082019050919050565b60008115159050919050565b610309816102f4565b82525050565b600081519050919050565b600082825260208201905092915050565b60005b8381101561034957808201518184015260208101905061032e565b60008484015250505050565b6000601f19601f8301169050919050565b60006103718261030f565b61037b818561031a565b935061038b81856020860161032b565b61039481610355565b840191505092915050565b60006040830160008301516103b76000860182610300565b50602083015184820360208601526103cf8282610366565b9150508091505092915050565b60006103e8838361039f565b905092915050565b6000602082019050919050565b6000610408826102c8565b61041281856102d3565b935083602082028501610424856102e4565b8060005b85811015610460578484038952815161044185826103dc565b945061044c836103f0565b925060208a01995050600181019050610428565b50829750879550505050505092915050565b6000602082019050818103600083015261048c81846103fd565b905092915050565b7f4e487b7100000000000000000000000000000000000000000000000000000000600052604160045260246000fd5b7f4e487b7100000000000000000000000000000000000000000000000000000000600052603260045260246000fd5b600080fd5b600080fd5b600080fd5b60008235600160400383360303811261051d5761051c6104f2565b5b80830191505092915050565b600073ffffffffffffffffffffffffffffffffffffffff82169050919050565b600061055482610529565b9050919050565b61056481610549565b811461056f57600080fd5b50565b6000813590506105818161055b565b92915050565b60006020828403121561059d5761059c61020c565b5b60006105ab84828501610572565b91505092915050565b600080833560016020038436030381126105d1576105d06104f2565b5b80840192508235915067ffffffffffffffff8211156105f3576105f26104f7565b5b60208301925060018202360383131561060f5761060e6104fc565b5b509250929050565b600081905092915050565b82818337600083830152505050565b600061063d8385610617565b935061064a838584610622565b82840190509392505050565b6000610663828486610631565b9150819050939250505056fea2646970667358221220f2afe4d46887f33109b8b172f84d0d6e10df173ea03c3b74c6ac930a8fced64c64736f6c634300081c0033",
  "linkReferences": {},
  "deployedLinkReferences": {}
}