{
  "_format": "hh-sol-artifact-1",
  "contractName": "Multicall3",
  "sourceName": "contracts/multicall.sol",
  "abi": [
    {
      "inputs": [],
      "name": "Unsuccessful",
      "type": "error"
    },
    {
      "inputs": [
        {
          "components": [
            {
              "internalType": "address",
              "name": "target",
              "type": "address"
            },
            {
              "internalType": "bool",
              "name": "allowFailure",
              "type": "bool"
            },
            {
              "internalType": "bytes",
              "name": "callData",
              "type": "bytes"
            }
          ],
          "internalType": "struct Multicall3.Call3[]",
          "name": "calls",
          "type": "tuple[]"
        }
      ],
      "name": "aggregate3",
      "outputs": [
        {
          "components": [
            {
              "internalType": "bool",
              "name": "success",
              "type": "bool"
            },
            {
              "internalType": "bytes",
              "name": "returnData",
              "type": "bytes"
            }
          ],
          "internalType": "struct Multicall3.Result[]",
          "name": "returnData",
          "type": "tuple[]"
        }
      ],
      "stateMutability": "payable",
      "type": "function"
    },
    {
      "inputs": [
        {
          "internalType": "uint256",
          "name": "blockNumber",
          "type": "uint256"
        }
      ],
      "name": "getBlockHash",
      "outputs": [
        {
          "internalType": "bytes32",
          "name": "blockHash",
          "type": "bytes32"
        }
      ],
      "stateMutability": "view",
      "type": "function"
    },
    {
      "inputs": [],
      "name": "getCurrentBlockTimestamp",
      "outputs": [
        {
          "internalType": "uint256",
          "name": "timestamp",
          "type": "uint256"
        }
      ],
      "stateMutability": "view",
      "type": "function"
    },
    {
      "inputs": [],
      "name": "thisMethodReverts",
      "outputs": [],
      "stateMutability": "pure",
      "type": "function"
    }
  ],
  "bytecode": "0x6080604052348015600f57600080fd5b506108788061001f6000396000f3fe60806040526004361061003f5760003560e01c8063032d0074146100445780630f28c97d1461005b57806382ad56cb14610086578063ee82ac5e146100b6575b600080fd5b34801561005057600080fd5b506100596100f3565b005b34801561006757600080fd5b50610070610125565b60405161007d9190610337565b60405180910390f35b6100a0600480360381019061009b91906103c1565b61012d565b6040516100ad91906105b8565b60405180910390f35b3480156100c257600080fd5b506100dd60048036038101906100d89190610606565b6102f7565b6040516100ea919061064c565b60405180910390f35b6040517f81775cc300000000000000000000000000000000000000000000000000000000815260040160405180910390fd5b600042905090565b606060008383905090508067ffffffffffffffff81111561015157610150610667565b5b60405190808252806020026020018201604052801561018a57816020015b610177610302565b81526020019060019003908161016f5790505b5091503660005b828110156102ee5760008482815181106101ae576101ad610696565b5b602002602001015190508686838181106101cb576101ca610696565b5b90506020028101906101dd91906106d4565b92508260000160208101906101f2919061075a565b73ffffffffffffffffffffffffffffffffffffffff168380604001906102189190610787565b604051610226929190610829565b6000604051808303816000865af19150503d8060008114610263576040519150601f19603f3d011682016040523d82523d6000602084013e610268565b606091505b5082600001836020018290528215151515815250505080516020840135176102e2577f08c379a000000000000000000000000000000000000000000000000000000000600052602060045260176024527f4d756c746963616c6c333a2063616c6c206661696c656400000000000000000060445260646000fd5b81600101915050610191565b50505092915050565b600081409050919050565b6040518060400160405280600015158152602001606081525090565b6000819050919050565b6103318161031e565b82525050565b600060208201905061034c6000830184610328565b92915050565b600080fd5b600080fd5b600080fd5b600080fd5b600080fd5b60008083601f8401126103815761038061035c565b5b8235905067ffffffffffffffff81111561039e5761039d610361565b5b6020830191508360208202830111156103ba576103b9610366565b5b9250929050565b600080602083850312156103d8576103d7610352565b5b600083013567ffffffffffffffff8111156103f6576103f5610357565b5b6104028582860161036b565b92509250509250929050565b600081519050919050565b600082825260208201905092915050565b6000819050602082019050919050565b60008115159050919050565b61044f8161043a565b82525050565b600081519050919050565b600082825260208201905092915050565b60005b8381101561048f578082015181840152602081019050610474565b60008484015250505050565b6000601f19601f8301169050919050565b60006104b782610455565b6104c18185610460565b93506104d1818560208601610471565b6104da8161049b565b840191505092915050565b60006040830160008301516104fd6000860182610446565b506020830151848203602086015261051582826104ac565b9150508091505092915050565b600061052e83836104e5565b905092915050565b6000602082019050919050565b600061054e8261040e565b6105588185610419565b93508360208202850161056a8561042a565b8060005b858110156105a657848403895281516105878582610522565b945061059283610536565b925060208a0199505060018101905061056e565b50829750879550505050505092915050565b600060208201905081810360008301526105d28184610543565b905092915050565b6105e38161031e565b81146105ee57600080fd5b50565b600081359050610600816105da565b92915050565b60006020828403121561061c5761061b610352565b5b600061062a848285016105f1565b91505092915050565b6000819050919050565b61064681610633565b82525050565b6000602082019050610661600083018461063d565b92915050565b7f4e487b7100000000000000000000000000000000000000000000000000000000600052604160045260246000fd5b7f4e487b7100000000000000000000000000000000000000000000000000000000600052603260045260246000fd5b600080fd5b600080fd5b600080fd5b6000823560016060038336030381126106f0576106ef6106c5565b5b80830191505092915050565b600073ffffffffffffffffffffffffffffffffffffffff82169050919050565b6000610727826106fc565b9050919050565b6107378161071c565b811461074257600080fd5b50565b6000813590506107548161072e565b92915050565b6000602082840312156107705761076f610352565b5b600061077e84828501610745565b91505092915050565b600080833560016020038436030381126107a4576107a36106c5565b5b80840192508235915067ffffffffffffffff8211156107c6576107c56106ca565b5b6020830192506001820236038313156107e2576107e16106cf565b5b509250929050565b600081905092915050565b82818337600083830152505050565b600061081083856107ea565b935061081d8385846107f5565b82840190509392505050565b6000610836828486610804565b9150819050939250505056fea2646970667358221220e80025d367acdbe8dadee0a8ac49ffb3d7176607b361cd1f8eed6c73d30a315464736f6c634300081c0033",
  "linkReferences": {},
  "deployedLinkReferences": {}
}